{
  "contractName": "PrometheusToken",
  "abi": [
    {
      "inputs": [
        {
          "name": "token",
          "type": "address"
        }
      ],
      "payable": false,
      "stateMutability": "nonpayable",
      "type": "constructor"
    },
    {
      "constant": false,
      "inputs": [
        {
          "name": "_tripduration",
          "type": "uint256"
        },
        {
          "name": "_km",
          "type": "uint256"
        },
        {
          "name": "_vehicle_speed",
          "type": "uint256"
        },
        {
          "name": "_engine_load",
          "type": "uint256"
        },
        {
          "name": "_batteryLvl",
          "type": "uint256"
        },
        {
          "name": "_gps",
          "type": "string"
        }
      ],
      "name": "addDataSet",
      "outputs": [
        {
          "name": "",
          "type": "bool"
        }
      ],
      "payable": false,
      "stateMutability": "nonpayable",
      "type": "function"
    },
    {
      "constant": false,
      "inputs": [
        {
          "name": "_user",
          "type": "address"
        },
        {
          "name": "id",
          "type": "uint256"
        }
      ],
      "name": "getDataSetOf",
      "outputs": [
        {
          "name": "",
          "type": "uint256"
        },
        {
          "name": "",
          "type": "uint256"
        },
        {
          "name": "",
          "type": "uint256"
        },
        {
          "name": "",
          "type": "uint256"
        },
        {
          "name": "",
          "type": "uint256"
        },
        {
          "name": "",
          "type": "string"
        }
      ],
      "payable": false,
      "stateMutability": "nonpayable",
      "type": "function"
    },
    {
      "constant": false,
      "inputs": [
        {
          "name": "_user",
          "type": "address"
        }
      ],
      "name": "getDataLength",
      "outputs": [
        {
          "name": "",
          "type": "uint256"
        }
      ],
      "payable": false,
      "stateMutability": "nonpayable",
      "type": "function"
    },
    {
      "constant": true,
      "inputs": [],
      "name": "getTokenAddress",
      "outputs": [
        {
          "name": "",
          "type": "address"
        }
      ],
      "payable": false,
      "stateMutability": "view",
      "type": "function"
    }
  ],
  "bytecode": "0x608060405234801561001057600080fd5b5060405160208061092783398101806040528101908080519060200190929190505050809050506108e1806100466000396000f300608060405260043610610062576000357c0100000000000000000000000000000000000000000000000000000000900463ffffffff16806310fe9ae81461006757806377b0bc13146100be578063dd5fa41114610115578063e95ed3f2146101c8575b600080fd5b34801561007357600080fd5b5061007c6102b1565b604051808273ffffffffffffffffffffffffffffffffffffffff1673ffffffffffffffffffffffffffffffffffffffff16815260200191505060405180910390f35b3480156100ca57600080fd5b506100ff600480360381019080803573ffffffffffffffffffffffffffffffffffffffff1690602001909291905050506102da565b6040518082815260200191505060405180910390f35b34801561012157600080fd5b506101ae6004803603810190808035906020019092919080359060200190929190803590602001909291908035906020019092919080359060200190929190803590602001908201803590602001908080601f0160208091040260200160405190810160405280939291908181526020018383808284378201915050505050509192919290505050610326565b604051808215151515815260200191505060405180910390f35b3480156101d457600080fd5b50610213600480360381019080803573ffffffffffffffffffffffffffffffffffffffff16906020019092919080359060200190929190505050610521565b6040518087815260200186815260200185815260200184815260200183815260200180602001828103825283818151815260200191508051906020019080838360005b83811015610271578082015181840152602081019050610256565b50505050905090810190601f16801561029e5780820380516001836020036101000a031916815260200191505b5097505050505050505060405180910390f35b60008060009054906101000a900473ffffffffffffffffffffffffffffffffffffffff16905090565b6000600160008373ffffffffffffffffffffffffffffffffffffffff1673ffffffffffffffffffffffffffffffffffffffff168152602001908152602001600020805490509050919050565b6000600160003373ffffffffffffffffffffffffffffffffffffffff1673ffffffffffffffffffffffffffffffffffffffff16815260200190815260200160002060c0604051908101604052808981526020018881526020018781526020018681526020018581526020018481525090806001815401808255809150509060018203906000526020600020906006020160009091929091909150600082015181600001556020820151816001015560408201518160020155606082015181600301556080820151816004015560a082015181600501908051906020019061040e929190610810565b505050506000809054906101000a900473ffffffffffffffffffffffffffffffffffffffff1673ffffffffffffffffffffffffffffffffffffffff166340c10f193360016040518363ffffffff167c0100000000000000000000000000000000000000000000000000000000028152600401808373ffffffffffffffffffffffffffffffffffffffff1673ffffffffffffffffffffffffffffffffffffffff16815260200182815260200192505050602060405180830381600087803b1580156104d757600080fd5b505af11580156104eb573d6000803e3d6000fd5b505050506040513d602081101561050157600080fd5b810190808051906020019092919050505050600190509695505050505050565b60008060008060006060600160008973ffffffffffffffffffffffffffffffffffffffff1673ffffffffffffffffffffffffffffffffffffffff1681526020019081526020016000208781548110151561057757fe5b906000526020600020906006020160000154600160008a73ffffffffffffffffffffffffffffffffffffffff1673ffffffffffffffffffffffffffffffffffffffff168152602001908152602001600020888154811015156105d557fe5b906000526020600020906006020160010154600160008b73ffffffffffffffffffffffffffffffffffffffff1673ffffffffffffffffffffffffffffffffffffffff1681526020019081526020016000208981548110151561063357fe5b906000526020600020906006020160020154600160008c73ffffffffffffffffffffffffffffffffffffffff1673ffffffffffffffffffffffffffffffffffffffff1681526020019081526020016000208a81548110151561069157fe5b906000526020600020906006020160030154600160008d73ffffffffffffffffffffffffffffffffffffffff1673ffffffffffffffffffffffffffffffffffffffff1681526020019081526020016000208b8154811015156106ef57fe5b906000526020600020906006020160040154600160008e73ffffffffffffffffffffffffffffffffffffffff1673ffffffffffffffffffffffffffffffffffffffff1681526020019081526020016000208c81548110151561074d57fe5b9060005260206000209060060201600501808054600181600116156101000203166002900480601f0160208091040260200160405190810160405280929190818152602001828054600181600116156101000203166002900480156107f35780601f106107c8576101008083540402835291602001916107f3565b820191906000526020600020905b8154815290600101906020018083116107d657829003601f168201915b505050505090509550955095509550955095509295509295509295565b828054600181600116156101000203166002900490600052602060002090601f016020900481019282601f1061085157805160ff191683800117855561087f565b8280016001018555821561087f579182015b8281111561087e578251825591602001919060010190610863565b5b50905061088c9190610890565b5090565b6108b291905b808211156108ae576000816000905550600101610896565b5090565b905600a165627a7a7230582088bbf69fde39a27ee90cab5b16433ec5829e4e8bb9e20a2c440dad1de265ecd40029",
  "source": "pragma solidity 0.4.24;\n\nimport 'openzeppelin-solidity/contracts/token/ERC20/MintableToken.sol';\n\ncontract PrometheusToken  {\n\n    struct DataSet {\n        uint tripduration;\n        uint km;\n        uint vehicle_speed;\n        uint engine_load;\n        uint batteryLvl;\n        string gps;\n    }\n\n    MintableToken token;\n    mapping(address => DataSet[]) data;\n\n    constructor(address token) {\n        token = MintableToken(token); // PrometheusToken Contract is Owner (msg.sender) of Token and is therefore allowed to mint tokens\n    }\n\n    function addDataSet(\n        uint _tripduration, \n        uint _km, \n        uint _vehicle_speed,\n        uint _engine_load, \n        uint _batteryLvl, \n        string _gps\n    ) public returns (bool) {\n        data[msg.sender].push(DataSet(\n            _tripduration, \n            _km, \n            _vehicle_speed, \n            _engine_load,\n            _batteryLvl,\n            _gps\n        )); // fahrzeug schreibt daten auf blockchain\n       \n        token.mint(msg.sender, 1); // Prometheustoken creates 1 new Token for supplied data\n\n        return true;\n    }\n\n    function getDataSetOf(address _user, uint id) public returns (uint, uint, uint, uint, uint, string) {\n        return (\n            data[_user][id].tripduration,\n            data[_user][id].km,\n            data[_user][id].vehicle_speed,\n            data[_user][id].engine_load,\n            data[_user][id].batteryLvl,\n            data[_user][id].gps\n        );\n    }\n\n    function getDataLength(address _user) public returns (uint) {\n        return data[_user].length;\n    }\n\n    function getTokenAddress() public view returns (address) {\n        return address(token);\n    }\n\n}\n",
  "sourcePath": "/Users/frankp/Projekte/audi/prometheus/contracts/PrometheusToken.sol",
  "compiler": {
    "name": "solc",
    "version": "0.4.24+commit.e67f0147.Emscripten.clang"
  },
  "schemaVersion": "2.0.1",
  "updatedAt": "2018-07-18T15:30:37.346Z"
}